:020000040800F2
:1000000000300020ED1300083514000835140008F6
:1000100035140008351400083514000800000000ED
:10002000000000000000000000000000351400087F
:1000300035140008000000003514000835140008CD
:1000400000000000000000000000000000000000B0
:1000500000000000000000000000000000000000A0
:100060000000000000000000000000000000000090
:100070000000000000000000000000000000000080
:100080000000000000000000000000000000000070
:100090000000000000000000000000000000000060
:1000A0000000000000000000000000000000000050
:1000B0000000000000000000000000000000000040
:1000C0000000000000000000000000000000000030
:1000D0000000000000000000000000000000000020
:1000E0000000000000000000000000000000000010
:1000F0000000000000000000000000000000000000
:1001000000000000000000000000000000000000EF
:1001100000000000000000000000000000000000DF
:1001200000000000000000000000000000000000CF
:1001300000000000000000000000000000000000BF
:1001400000000000000000000000000000000000AF
:10015000000000000000000000000000000000009F
:10016000000000000000000000000000000000008F
:10017000000000000000000000000000000000007F
:08018000000000000000000077
:1001900010B5054C237833B9044B13B10448AFF3C1
:1001A00000800123237010BD6400002000000000C7
:1001B000082C000808B5034B1BB103490348AFF3F3
:1001C000008008BD0000000068000020082C000826
:1001D00001F0FF01102A2BDB10F0070F08D010F8F8
:1001E000013B013A8B422DD010F0070F42B3F6D1FC
:1001F000F0B441EA012141EA014122F007047FF015
:1002000000070023F0E80256083C85EA010586EA6B
:10021000010685FA47F5A3FA87F586FA47F6A5FAA7
:1002200087F68EB9EED1F0BC01F0FF0102F00702B3
:1002300032B110F8013B013A83EA010313B1F8D15E
:100240000020704701387047002D06BF354603383F
:10025000073815F0010F07D1013015F4807F02BF78
:10026000013015F4C03F0130F0BC0138704700BFC9
:10027000002070472DE9F04385B0804600F044FA35
:1002800025492648DFF8989001F030F904464FF4EC
:10029000A87001F0EDFA07464FF4A87001F0E8FAF3
:1002A0000025064601AA4946204601F027F9012209
:1002B0001146204601F036F902AA4946204601F0CF
:1002C0001DF9029B47F825300122019B46F8253095
:1002D00011462046013501F025F9542DE2D138466A
:1002E00001F0CEFA304601F0CBFA0023039340F63A
:1002F000FE72039B93420AD900F00DFA4246102188
:10030000722000F0A1F8002005B0BDE8F083039B47
:1003100001330393EDE700BF402C0008422C000896
:100320004E2C00080020704708B500F04BF900F093
:1003300089F900F0C5F900F071F8094A1021702020
:1003400000F068F8074A10216B2000F063F8064AB5
:100350000021782000F05EF800F0D0F8FCE700BF44
:10036000750200087102000825030008012070478B
:10037000F0B500254F1C854201DB002021E017F875
:10038000154011F81530A4F13006F6B2092E0CD83C
:100390001670A3F13004E6B2092E15D8137843EA9B
:1003A0000413137001350132E5E7A4F14106052E6F
:1003B00002D8373C1470ECE7A4F16106052E01D990
:1003C0000120F0BD573CF5E7A3F14104052C02D80C
:1003D000A3F13704E2E7A3F16104052CF0D8147807
:1003E000573B44EA0313DCE770B5094E34680F2C21
:1003F0000BDCFF2909D806EB0415C5E9021201340C
:1004000028712B743460002070BD0120FCE700BF10
:10041000800000200023FFF7E7BF000008B5074A6F
:1004200000217620FFF7F6FF054A7720FFF7F2FF5D
:10043000BDE80840034A7920FFF7ECBF6D030008D0
:10044000AD04000889040008F8B514460E4600F013
:1004500083F90C4F651EC4F1010463199E4204DC4C
:10046000BDE8F8400A2000F077B915F8013F1B09F4
:10047000F85C00F071F92B7803F00F03F85C00F0E2
:100480006BF9EAE7202C000807B5074B0DF10702CE
:100490001B688DF8073001217220FFF7D5FF00207F
:1004A00003B05DF804FB00BF8000002070B5124C63
:1004B00021688CB0CDB20020C3B2AB4200F1010084
:1004C00009DB01EB41016A46C9B27220FFF7BCFFAC
:1004D00000200CB070BD03EB43020CAE04EB031321
:1004E00032441E7902F8306C9E681B7C02F82F6C37
:1004F00002F82E3CE0E700BF800000202DE9F0412B
:100500002F4DADF5427D00F00DF92A46002352F83B
:10051000041B994204DC07D10DF5427DBDE8F08152
:100520001C01A45C84423ED105EB03141E01237C14
:10053000DB0714D500238DF8083000F0F3F88DF8B0
:10054000080100F0EFF802AA8DF8090142A9012084
:10055000FFF70EFF0028DFD19DF80830A36042AFFF
:10056000002405EB0608D8F80830B4EB430F1CD381
:1005700000F0D8F80A2801D00D28CDD1354402AAC0
:10058000AC6842A92046FFF7F3FE0028C4D1E1B2CF
:10059000EB6802A8984701AA8DF8040001217A208F
:1005A000FFF752FFB8E70133B3E700F0BBF80A28C2
:1005B000B2D00D28B0D007F8010B0134D3E700BF4B
:1005C0008000002070B596B0002403264FF4A023CD
:1005D0000CA80125CDE90C631094149400F0D4F814
:1005E0000F23214602A8CDE90235CDE90444069443
:1005F00000F038FB114B5A6942F400225A615B69E2
:10060000CDE9094603F400230D4C0193019B07A992
:100610004FF4C0432046CDE9073500F0C9FB2A4618
:1006200020464FF4005100F087FC2A464FF48041E9
:10063000204600F081FC16B070BD00BF00100240E3
:100640000008004810B54FF4C06288B00223CDE91D
:10065000032301210323CDE90513164C0723079338
:10066000636943F400336361636903F40033019306
:1006700003A94FF09040019B00F09AFB0E48DFF871
:100680003CC04FF41643C0E900C30023C0E9023365
:10069000036183610C234361A36943F48043A36135
:1006A000A36903F480430293029B00F099FD08B014
:1006B00010BD00BF0010024084010020003801403E
:1006C000104B30B55A6942F400325A615B6987B009
:1006D00003F400330093009B4FF480540123CDE9D1
:1006E00001430025032301A94FF09040CDE90353B6
:1006F00000F05EFB2A4621464FF0904000F01CFCC3
:1007000007B030BD0010024001224FF480514FF07D
:10071000904000F011BC00224FF480514FF0904007
:1007200000F00ABC37B50A4D0A4C41F28833012269
:100730000DF10701284600F0D4FD18B99DF8070017
:1007400003B030BD236A43F008032362EDE700BF26
:10075000840100200038014007B541F288338DF84C
:10076000070001220DF10701024800F064FD03B00B
:100770005DF804FB84010020024B1868421C1A60DB
:10078000704700BFF401002003682DE9F341D90749
:10079000044611D423689A0700F1868023681E0757
:1007A00000F1F48023685D0700F14081E269002ACE
:1007B00040F0CB81002021E09A494B6803F00C0304
:1007C000042B07D04B6803F00C03082B19D14B689E
:1007D000DB0316D54FF4003393FAA3F2096893FABA
:1007E000A3F3B3FA83F303F01F03012202FA03F326
:1007F0000B42CFD06368002BCCD1012002B0BDE802
:10080000F0816268B2F5803F24D10B6843F48033F5
:100810000B60CB6AA06823F00F030343CB624AB39B
:10082000FFF7AAFF4FF400360546012796FAA6F314
:100830000A6896FAA6F3B3FA83F303F01F0307FAE4
:1008400003F31342A6D1FFF797FF401B6428EDD9AD
:100850000320D3E70B6832B923F480330B600B68B5
:1008600023F48023D4E7B2F5A02FF5D143F48023FD
:100870000B60CAE7FFF780FF4FF4003605460127FB
:1008800096FAA6F30A6896FAA6F3B3FA83F303F08E
:100890001F0307FA03F313423FF47CAFFFF76CFF2B
:1008A000401B6428ECD9D3E75E494B6813F00C0F6A
:1008B00007D04B6803F00C03082B21D14B68DF03F2
:1008C0001ED4022393FAA3F2086893FAA3F3B3FAAF
:1008D00083F303F01F03012202FA03F3034202D061
:1008E0002369934289D10868F82393FAA3F3B3FAF2
:1008F00083F26369934020F0F80213430B604DE7E5
:100900002269012502B395FAA5F3B3FA83F303F143
:10091000845303F584139B0002271D60FFF72CFF0F
:10092000064697FAA7F30A6897FAA7F3B3FA83F390
:1009300003F01F0305FA03F31342D4D1FFF71CFFA2
:10094000801B0228EDD983E795FAA5F3B3FA83F368
:1009500003F1845303F584139B0002271A60FFF709
:100960000BFF064697FAA7F30A6897FAA7F3B3FABC
:1009700083F303F01F0305FA03F313423FF40EAFB2
:10098000FFF7FAFE801B0228ECD961E7A269254D2A
:100990002548012112B391FAA1F3B3FA83F303447A
:1009A0009B0002261960FFF7E7FE074696FAA6F3BA
:1009B00096FAA6F396FAA6F36A6A96FAA6F3B3FA3B
:1009C00083F303F01F0301FA03F313427FF4EAAE4B
:1009D000FFF7D2FEC01B0228E8D939E791FAA1F34C
:1009E000B3FA83F303449B0002261A60FFF7C4FEA8
:1009F000074696FAA6F396FAA6F396FAA6F36A6A5B
:100A000096FAA6F3B3FA83F303F01F0301FA03F394
:100A100013423FF4C7AEFFF7AFFEC01B0228E8D970
:100A200016E700BF00100240208190108A49CB6970
:100A3000D80033D4CB6943F08053CB61CB6903F04A
:100A400080530193019B0125844E3368DA0527D535
:100A5000E368012B34D10B6A43F001030B62FFF70B
:100A60008BFE022607464FF0010896FAA6F396FA87
:100A7000A6F3002B61D00A6A96FAA6F3B3FA83F3C1
:100A800003F01F0308FA03F313424ED0002D3FF486
:100A90008DAECB6923F08053CB6187E60025D3E789
:100AA000336843F480733360FFF766FE07463368AC
:100AB000DB05CDD4FFF760FEC01B6428F7D9C7E67D
:100AC0002BBB0B6A23F001030B620B6A23F00403B8
:100AD0000B62FFF751FE022607464FF0010896FA17
:100AE000A6F396FAA6F363B30A6A96FAA6F3B3FAE4
:100AF00083F303F01F0308FA03F31342C6D0FFF792
:100B00003BFE41F28833C01B9842E8D9A0E6052B92
:100B10000B6A03D143F004030B629CE723F001034B
:100B20000B620B6A23F0040398E7FFF725FE41F2FE
:100B30008833C01B984298D98AE696FAA6F34A6A87
:100B40009AE796FAA6F34A6ACFE743494B6803F05F
:100B50000C03082B3FF451AE022A4FF0807354D19E
:100B600093FAA3F3B3FA83F303F1845303F58413E5
:100B70009B0000221A60FFF7FFFDDFF8E4800646C5
:100B80004FF00077012597FAA7F30A6897FAA7F3C1
:100B9000B3FA83F303F01F0305FA03F313422ED1D4
:100BA000D4E908034A68034322F4741213434B60E8
:100BB0004FF0807393FAA3F3B3FA83F303F18453F2
:100BC00003F584139B00264F1D60FFF7D5FD4FF002
:100BD00000750446012695FAA5F30A6895FAA5F36F
:100BE000B3FA83F303F01F0306FA03F313427FF40F
:100BF000E1ADFFF7C1FD001BB842ECD928E6FFF7D5
:100C0000BBFD801B4045BED922E693FAA3F3B3FA9D
:100C100083F303F1845303F584139B0000221A60CD
:100C2000FFF7AAFD0E4F04464FF00075012695FA16
:100C3000A5F30A6895FAA5F3B3FA83F303F01F034B
:100C400006FA03F313423FF4B5ADFFF795FD001B21
:100C5000B842ECD9FCE500BF001002400070004033
:100C6000400D0300504AF8B5136803F007038B42A8
:100C700004461BD32268900724D4D2072AD44A4AB8
:100C8000136803F007038B427AD82068430700F10A
:100C9000828010F0080014D0444A2169536823F47C
:100CA000605343EAC103536000200AE0136823F055
:100CB00007030B431360136803F007038B42D9D07B
:100CC0000120F8BD3948A568436823F0F0032B43A1
:100CD0004360D2E76268354D012A27D14FF40033D3
:100CE00093FAA3F0286893FAA3F3B3FA83F303F01B
:100CF0001F0302FA03F30342E2D06B6823F00303FD
:100D00001A436A60FFF738FD6368012B064641F21B
:100D100088371ED16B6803F00C03042BAFD0FFF7AC
:100D20002BFD801BB842F5D90320CAE7022A0CBF6D
:100D30004FF00073022393FAA3F02E6893FAA3F303
:100D4000B3FA83F303F01F03012000FA03F33342E5
:100D5000D2E7022B0FD16B6803F00C03082B8ED067
:100D6000FFF70AFD801BB842F5D9DDE7FFF704FD68
:100D7000801BB842D8D86B6813F00C0FF6D17EE711
:100D8000136823F007030B431360136803F0070392
:100D90008B4295D179E70549E3684A6822F4E0621D
:100DA0001A434A6075E700BF00200240001002406D
:100DB0002DE9F74FDFF874815D4C00234FF00109F6
:100DC0000A6832FA03F502D103B0BDE8F08F09FAE0
:100DD00003FA1AEA020200F09E804D6825F0100E18
:100DE000BEF1020F14D14FEAD30C00EB8C0C03F0D0
:100DF000070BDCF820604FEA8B0B0F2707FA0BF785
:100E000026EA07070E6906FA0BF63E43CCF8206087
:100E1000D0F800B04FEA430C032606FA0CF72BEA91
:100E2000070BFE4305F0030707FA0CF70EF1FF3E30
:100E300047EA0B07BEF1010F076011D8876806EA81
:100E4000070ECF6807FA0CF747EA0E078760476876
:100E500027EA0A0AC5F300179F4047EA0A074760D6
:100E6000C76837408E6806FA0CF63E43C660EE004F
:100E700051D5D8F8186046F00106C8F81860D8F8BF
:100E8000186023F0030707F1804706F0010607F515
:100E90008037019603F0030E019EBE684FEA8E0E66
:100EA0004FF00F0C0CFA0EFCB0F1904F26EA0C0C30
:100EB00033D0204EB04232D006F58066B04230D0FA
:100EC00006F58066B0422ED006F58066B0420CBFB3
:100ED0000426052606FA0EF646EA0C06BE602668CB
:100EE000D74315F4803F0CBF3E401643266066682A
:100EF00015F4003F0CBF3E4016436660A66815F42B
:100F0000801F0CBF3E401643A660E668AD0254BF8A
:100F10003E401643E660013352E70026DAE7012639
:100F2000D8E70226D6E70326D4E700BF0010024028
:100F300000040140000400480AB1816170478162E9
:100F40007047000002688168C36930B5056914689C
:100F50002943456924F41644294324F00C04194319
:100F6000214311605168C468056A21F4405121434E
:100F700051609468816924F430642943214391606D
:100F800062498A4216D101F55841096B01F003010B
:100F90000139022900F2B2805D4CB3F5004F615C6B
:100FA00077D1082972D8DFE801F0ACAC2471AC71BC
:100FB0007171A40057498A422CD101F5E631096BC1
:100FC00001F44031B1F5003F00F090800BD80029CA
:100FD00000F09480B1F5803F00F09080B3F5004FB1
:100FE00054D0012015E0B1F5403FF7D1B3F5004FE3
:100FF00066D141684B0803F1F47303F59043B3FBEA
:10100000F1F300209BB223F00F01C3F342030B4323
:10101000D36030BD40498A4210D101F5E431096BFB
:1010200001F44021B1F5002F60D004D8002965D02B
:10103000B1F5802FD0E7B1F5402FD6E737498A4286
:1010400010D101F5E231096B01F44011B1F5001F37
:101050004CD004D8002951D0B1F5801FBCE7B1F5C0
:10106000401FC2E72E498A42B8D101F5E031096B31
:1010700001F44001B1F5000F38D004D800293DD06B
:10108000B1F5800FA8E7B1F5400FAEE701200023CE
:10109000B9E70829A5D801A353F821F0D910000811
:1010A000D9100008C1100008E30F0008D91000088B
:1010B000E30F0008E30F0008E30F0008E310000847
:1010C00041684B0803F5740303F51053B3FBF1F3C8
:1010D0009BB2D36000209CE741684B0803F5E10315
:1010E000F4E741684B0803F50043EFE7B3F5004F21
:1010F000F7D141684B0803F5803380E7B3F5004F23
:10110000EAD141684B0803F5610378E700380140F4
:10111000302C00080044004000480040004C0040D3
:1011200000500040F8B5069F044615461E4622684A
:10113000D36931EA03030CBF01230023AB4201D082
:10114000002014E07B1CF3D097B923681A6822F4BE
:10115000D0721A609A6822F001029A60202384F803
:10116000693084F86A30002384F868300320F8BDC1
:10117000FFF702FB801BB842D9D9E6E737B5044632
:101180000021C166FFF7F8FA23681B681A070546B5
:1011900017D423681B685B070AD56FF07E43009362
:1011A00000222B464FF480012046FFF7BBFFA0B979
:1011B0002023002084F8693084F8680084F86A30BD
:1011C0000CE06FF07E4300930A4603464FF4001193
:1011D0002046FFF7A7FF0028DBD0032003B030BD77
:1011E00010B5044628B390F8693003F0FF020BB93C
:1011F00080F868202268242384F86930136823F07B
:10120000010313602046FFF79DFE012811D02368DB
:101210005A6822F490425A609A6822F02A029A6030
:101220001A6842F0010220461A60BDE81040FFF73C
:10123000A5BF012010BDF7B51E4690F86930202BE0
:101240000D46044611464AD1002D46D0002A44D00E
:1012500090F86830012B42D0012380F868300023D9
:10126000C366212380F86930FFF786FAA4F850108E
:101270000746A4F85210B4F8522092B262B9009610
:101280003B4640212046FFF74DFF98B9202384F8C4
:10129000693084F868000EE0B4F852200096013AF4
:1012A00092B2A4F852203B46002280212046FFF74C
:1012B00039FF10B1032003B0F0BDA3682268B3F575
:1012C000805F07D123692BB935F8023BC3F30803CC
:1012D0001385D0E715F8013BFAE70120EBE7022080
:1012E000E9E72DE9F3411E4690F86A30202B0D46C0
:1012F000044611465CD1002D58D0002A56D090F8F3
:101300006830012B54D0012380F8683003684FF017
:10131000FF321A620023C366222380F86A30FFF787
:101320002BFAA368A4F85810B3F5805F8046A4F8A0
:101330005A1015D123698BB940F2FF13A4F85C3021
:10134000B4F85C70B4F85A0080B280B9202384F8F5
:101350006A3084F8680002B0BDE8F081FF23EDE751
:10136000002BEDD12369002BF8D07F23E6E7B4F8FA
:101370005A200096013A92B2A4F85A20434600221D
:1013800020212046FFF7CEFEA0B9A2682368B2F55F
:10139000805F06D1226922B99B8C3B4025F8023B35
:1013A000D0E79B8C3B4005F8013BCBE70120D2E71F
:1013B0000220D0E70320CEE70A4A116808B50346A9
:1013C00009B9094911601068694603448B4206D97E
:1013D00000F032F80C2303604FF0FF3008BD1360BB
:1013E000FCE700BFFC01002010020020002103E008
:1013F0000B4B5B58435004310A480B4B42189A423E
:10140000F6D30A4A02E0002313600432084B9A42E2
:10141000F9D3AFF3008000F09DF9FEF785FFFEE7FA
:10142000E02D00080000002064000020640000207F
:1014300010020020FEE70000014B1868704700BF53
:1014400000000020F7B50F46114601AA054601F03D
:10145000A3FA064618B90024204603B0F0BD28467A
:1014600001F054FA04460028F5D03946019A4FF4A9
:10147000DB73284600F0D2FD071E09DA002501F0D3
:10148000F5F9A06DA58100F08AF901F0F5F9E2E720
:10149000636EDB0705D4A389980502D4A06D00F024
:1014A0007FF90E4B63620E4BA3620E4BE362F105B4
:1014B0000D4BE781A6812462236305D50223002218
:1014C0002146284600F02CF8636EDA07C4D4A389BD
:1014D0009B05C1D4A06D00F064F9BDE7F9210008B7
:1014E0001B2200085322000877220008024B0A46FC
:1014F00001461868FFF7A6BF000000200EB403B530
:10150000014603AB054853F8042B0068019300F033
:101510000FFC02B05DF804EB03B070470000002040
:1015200000F00AB813460A4601460248006800F077
:1015300003B800BF000000202DE9F0410C4617461B
:101540001E46054618B183690BB901F0A7F9444B53
:101550009C4222D16C68636ED90705D4A3899A0591
:1015600002D4A06D00F01CF9A38903F48473B3F5D1
:10157000847F03D12146284601F0EAF8D4F82C8074
:10158000B8F1000F13D11D232B60636ED9075DD511
:101590004FF0FF363046BDE8F081324B9C4201D11E
:1015A000AC68D8E7304B9C4208BFEC68D3E7012E0B
:1015B00036D036F0020347D123691BB921462846AD
:1015C00000F016F92146284601F0C2F80028DCD1C7
:1015D000216A33463A462846C0470130D5D0616B70
:1015E00041B104F14403994202D0284600F058F971
:1015F0000023636323692360A389002523F4026326
:101600006560A3810822294604F15C0000F040F9DE
:10161000666E16F0010620D1A3899B05BAD40CE0B2
:101620002146284600F022F8431C064609D1636E85
:10163000DD07ADD4A3899805AAD4A06D00F0B1F858
:10164000A8E707440026B7E716239DE7A3899A0574
:101650009ED4A06D00F0A5F89AE72E469AE700BF49
:10166000982D0008B82D0008782D000870B50C469C
:10167000054618B183690BB901F010F9324B9C4251
:1016800014D16C68636EDA0705D4A3899B0502D474
:10169000A06D00F085F8E66ACEB91D232B60636E5D
:1016A000DE070DD54FF0FF35284670BD274B9C4215
:1016B00001D1AC68E6E7264B9C4208BFEC68E1E745
:1016C000A3899D05EED4A06D00F06BF8EAE7A2892E
:1016D00002F00C03082B19D12368BBB121695B1AF6
:1016E000002B13DDD00511D502230022216A2846E4
:1016F000B047411C05460DD1636EDA07D2D4A389E9
:101700009B05CFD4A06D00F04CF8CDE712F48052C9
:101710000FD0656DA28956070DD56368ED1A636B0E
:101720000BB1236CED1A636ED907BDD49305BBD4FE
:10173000E8E70123DAE71007F5D52368002BF2D09C
:1017400021695B1A1D44EEE7982D0008B82D0008AA
:10175000782D000870B50D4D0D4C641BA4100026AB
:10176000A64209D10B4D0C4C01F04EFA641BA4109B
:101770000026A64205D170BD55F8043B98470136B6
:10178000EEE755F8043B98470136F2E7D82D0008FC
:10179000D82D0008D82D0008DC2D000870477047B0
:1017A0007047704770B50E46B1F90E10002996B01B
:1017B00014461D4608DAB6F90C3000222A601A06D3
:1017C00010D44FF480630EE06A4601F01BF9002844
:1017D000F1DB019A02F47042A2F500535A425A41D9
:1017E0002A60EEE740230020236016B070BD0000A1
:1017F0008B8973B59D0706460C4607D504F1470350
:10180000236023610123636102B070BD01AB6A46AE
:10181000FFF7C8FF00990546304600F08BF848B93D
:10182000B4F90C309A05EFD423F0030343F002031C
:10183000A381E3E70D4BB362A389206043F08003EB
:10184000A381009B6361019B20615BB1B4F90E1021
:10185000304601F025F928B1A38923F0030343F0B2
:101860000103A381A0890543A581CDE735280008A0
:10187000024B0146186800F05DB800BF0000002070
:10188000024B0146186800F00BB800BF00000020B2
:1018900002440346934200D1704703F8011BF9E765
:1018A00038B50546002941D051F8043C0C1F002BE7
:1018B000B8BFE41801F024F91D4A136833B9636016
:1018C00014602846BDE8384001F020B9A34208D989
:1018D000206821188B4201BF19685B6809182160D4
:1018E000EDE71A465B680BB1A342FAD911685018AC
:1018F000A0420BD120680144501883421160E0D10E
:1019000018685B68536001441160DAE702D90C2360
:101910002B60D6E7206821188B4204BF19685B68EA
:10192000636004BF091821605460CAE738BD00BF76
:1019300004020020F8B5CD1C25F0030508350C2D58
:1019400038BF0C25002D064601DBA94203D90C2324
:1019500033600020F8BD01F0D3F821490A6814462D
:101960009CB9204F3B6823B92146304600F0FCFB70
:1019700038602946304600F0F7FB431C23D10C2386
:101980003360304601F0C2F8E3E723685B1B17D4ED
:101990000B2B03D923601C44256004E06368A2423A
:1019A0000CBF0B605360304601F0B0F804F10B003F
:1019B000231D20F00700C21ACCD01B1AA350C9E780
:1019C00022466468CCE7C41C24F00304A042E3D0A0
:1019D000211A304600F0C8FB0130DDD1CFE700BF4F
:1019E00004020020080200202DE9F0471D464B6E3E
:1019F000DF07ADF5227D06460C46924605D48B895D
:101A0000980502D4886DFFF7CBFE0023CDE944335F
:101A1000A54BA0930DF10408A44BA54FDFF89492B9
:101A2000CDF81881A19300959AF80030002B00F0B2
:101A30007181D95D11F008010AF1010519D06368BF
:101A4000002B0FDD23681A78BA5C110701D4AA466F
:101A5000EAE7459A0132459262680133013A6260D1
:101A60002360ECE7A19B2146304698470028E9D047
:101A7000EDE7252B12D09A466368002B40F3958042
:101A800022681378534540F045816368013B6360E9
:101A9000459B0132013322604593D8E74191439140
:101AA0009AF801302A2B02BF102341930AF1020554
:101AB0000A22AA461AF8011BA1F13003092B1ED9EC
:101AC0007C480322FEF784FB40B10123A0EB090010
:101AD00003FA00F0419B18434190554615F8013B2D
:101AE000782B07D8572B11D8252BC4D058D8002BCA
:101AF00000F0C780032347930A2342937CE0439B73
:101B000002FB0311303943915546D2E7A3F1580245
:101B1000202AEFD801A151F822F000BFE31B0008F2
:101B2000F51A0008F51A0008411C0008F51A00080B
:101B3000F51A0008F51A0008F51A0008F51A000849
:101B4000F51A0008F51A0008571C00082D1C00089B
:101B5000A71B0008A71B0008A71B0008F51A000810
:101B6000311C0008F51A0008F51A0008F51A0008DB
:101B7000F51A0008671C0008391C0008DB1B000868
:101B8000F51A0008F51A0008631C0008F51A000889
:101B90002D1C0008F51A0008F51A0008E31B0008C0
:101BA000453B022BA6D8052325E0A19B21463046C4
:101BB000984700283FF464AF636EDA0740F1A280D3
:101BC0004498002866D0A38913F0400F18BF4FF047
:101BD000FF300DF5227DBDE8F087419A42F02002EA
:101BE0004192419A42F40072419210226F2B42922C
:101BF00034BF0323042347936368002B4DDD419BCF
:101C00005B0604D423681A78BA5C100754D4479B47
:101C1000022B63DC6B46224641A9304600F0B0F847
:101C2000012877D002287FF412AFC5E70A22DDE74A
:101C3000002342930323DEE7082342930423DAE7D9
:101C40002946404600F0A0FA419B43F040034193EF
:101C500005460123CFE7419B43F040034193002316
:101C6000C9E70223C7E74198C3063FF5F0AE009BE2
:101C7000459A191D00911B68C0074CBF1A801A6055
:101C8000E5E6636ED80705D4A389990502D4A06D53
:101C9000FFF787FD4FF0FF309BE7A19B21463046C1
:101CA00098470028ABD087E7D924000855200008C2
:101CB000782C0008582C0008459A01324592626839
:101CC000013A002A626002DD013323609AE7A19B9A
:101CD000214630469847002894D06DE7042B06DC57
:101CE0006B46224641A9304600F0A4F898E70F4B16
:101CF000002B3FF4ACAE6B46224641A93046AFF311
:101D000000808DE7A38999053FF55AAFA06DFFF7D5
:101D100048FD55E7636EDA0705D4A3899B0502D415
:101D2000A06DFFF73EFD449853E700BF00000000A0
:101D30002DE9F0410C4616461F46054618B1836949
:101D40000BB900F0ABFD0B4B9C4208D16C683B46D5
:101D5000324621462846BDE8F041FFF745BE064B16
:101D60009C4201D1AC68F2E7044B9C4208BFEC688E
:101D7000EDE700BF982D0008B82D0008782D000869
:101D80002DE9F84315468A6880460C4632B98A69BF
:101D9000002A0CBF01224FF0FF328A602268DFF870
:101DA0009090D1065FBF1A68111D19601668002750
:101DB000A06988B1012807D12B681A7863699B5CF8
:101DC00053B9002F31D022E0022820D12B681B7894
:101DD00013F809301B071AD42368DA065EBF2B6894
:101DE0001B7806F8013B2A686B6801322A60A268FA
:101DF000013B013A6B600137A26042B1002BD7DC96
:101E0000D4F880312946404698470028D0D023682E
:101E100013F0100305D1E2680132E260A26902B159
:101E2000337023693B4423610020BDE8F88300BF81
:101E3000782C00082DE9F04F9846744B0C468246EA
:101E4000164693E8070087B003AB83E80700704BA2
:101E5000A169704A032918BF1A46A36801925A1E45
:101E6000B2F5AE7F88BF6FF4AE75274682BF03EB35
:101E7000050940F25D13A36057F81C3B43F450631F
:101E800098BF4FF0000923603D464FF0000B3168CA
:101E900003AB097853F82B000222FEF799F928B317
:101EA000BBF1010F59D162682AB92268082342F4B4
:101EB000007263602260226822F4A0622260A2683D
:101EC000511EA16092B13268511C3160127805F840
:101ED000012B7268013A002A726007DCD4F8802175
:101EE000314650469047002840F085800BF1010BA9
:101EF000BBF1030FCBD163680BB90A23636063683E
:101F000045496069C91A00F03FF94FF0000BA3681A
:101F10002268002B3DD03168606991F800C010F84C
:101F20000C00002835D0BCF1300F24D1100522D58B
:101F30000BF1010BB9F1000F03D0013309F1FF39A7
:101F4000A3607368013B002B73601BDD33680133B2
:101F50003360A368013BA360D9E7BBF1020FAED1A8
:101F6000226802F4C061B1F5007FBFD11023636025
:101F700042F48072A2E722F4106222600B7805F826
:101F8000013BDEE7D4F880313146504698470028BF
:101F9000DFD02368D9050DD5BD4209D915F8011C3C
:101FA000D4F87C3132465046984705F1FF394D460A
:101FB000BD4228D0226812F0100213D12A70636843
:101FC000019E39465046B047D8F8003021681A1DA6
:101FD000C8F8002011F0200F1B680FD01860E368CC
:101FE0000133E360ED1BAB4425695D4425610020AE
:101FF00007B0BDE8F08F4FF0000BCAE7CA074CBF2F
:1020000018801860EBE70120F2E700BF342C0008CD
:102010006124000879230008752C000838B5074DA5
:1020200004460846114600222A601A4600F0D4FDF4
:10203000431C02D12B6803B1236038BD0C02002081
:10204000838903F00903092B01D100F0BDBB0020F7
:1020500070470000F8B50C46054618B183690BB906
:1020600000F01CFC3B4B9C420AD16C68B4F90C207C
:1020700000236360A3899E060CD54FF0FF3066E015
:10208000354B9C4201D1AC68F0E7344B9C4208BF11
:10209000EC68EBE7580748D4D90605D409232B6030
:1020A00042F04003A381E8E71A070BD521462846F2
:1020B00000F04EFB0028E0D1A389A06023F00803C4
:1020C000A381A061A38943F00403A38123691BB901
:1020D00021462846FFF78CFBA689B4F90C70B3079C
:1020E0000FD00123A3811E4B1E49186806F0090674
:1020F00000F09AFC092EA78103D12146284600F062
:10210000A5FA2269666A6369216A22602846B04797
:10211000002860601CDCB4F90C3017BF002243F0CB
:102120002003626043F04003BCE7616B0029CDD01F
:1021300004F14403994202D02846FFF7B1FB236C17
:10214000636000206063002BC0D0E36B2360F8BDA8
:102150000020FCE7982D0008B82D0008782D000815
:10216000542C00084120000838B5064D00230446D1
:1021700008462B60FFF720F9431C02D12B6803B1FE
:10218000236038BD0C02002070B50B7804465E2B2E
:102190000BBF4B78481C881C002208BF0122611E1F
:1021A00004F1FF0501F8012FA942FBD10BB9013859
:1021B00070BD82F00102E2540546284610F8011B6A
:1021C0002D2906D05D29F3D009B92846F0E70B4642
:1021D000F1E76E785D2EFAD0B342F8DC023519468D
:1021E00001318E426254FBDCF11A0139581CB342B2
:1021F000A8BF00214318E0E710B50C46B1F90E1056
:1022000000F0B0FC0028ABBF636DA3891B1823F45A
:102210008053ACBF6365A38110BD2DE9F0411F461B
:102220008B89DB0505460C46164605D5B1F90E101F
:102230000223002200F044FCA389B4F90E1023F419
:102240008053A38132463B462846BDE8F04100F06A
:10225000DBB910B50C46B1F90E1000F031FC431C8F
:10226000A38915BF606523F4805343F48053A38191
:1022700018BFA38110BDB1F90E1000F0D7B900004E
:10228000012B2DE9F047804601D0242B06D9FFF71A
:10229000D3F8162303600020BDE8F087354F0D46C4
:1022A000284615F8014BE65D16F00806F8D12D2CEE
:1022B0002FD12C780126851C002B57D0102B09D14B
:1022C000302C07D1287800F0DF00582849D16C78ED
:1022D0001023023506F1004E0EF1FF3E0027BEFB33
:1022E000F3F9384603FB19EAA4F1300CBCF1090FED
:1022F00014D86446A34222DD002F1DDB81451BD389
:1023000001D1A24518DB00FB0340012715F8014B62
:10231000EAE72B2C04BF2C78851CCDE7A4F1410CF7
:10232000BCF1190F01D8373CE4E7A4F1610CBCF112
:10233000190F04D8573CDDE74FF0FF37E6E7002FD1
:1023400007DA2223C8F800307046002AA4D0691E9C
:1023500005E006B14042002A9ED0002FF7D111605F
:102360009AE73024002BB5D10823B3E7302CA9D04D
:102370000A23AFE7782C0008FFF782BF2DE9F0436E
:10238000364F86460D46284615F8014BE65D16F099
:102390000806F8D12D2C2FD12C780126851C002B76
:1023A00057D0102B09D1302C07D1287800F0DF004E
:1023B000582849D16C78102302354FF0FF38002798
:1023C000B8FBF3F803FB08F96FEA09093846A4F1F2
:1023D000300CBCF1090F14D86446A34222DD002F53
:1023E0001DDB80451BD301D1A14518DB00FB034059
:1023F000012715F8014BEAE72B2C04BF2C78851C2C
:10240000CDE7A4F1410CBCF1190F01D8373CE4E74A
:10241000A4F1610CBCF1190F04D8573CDDE74FF073
:10242000FF37E6E7002F07DA2223CEF800304FF01F
:10243000FF3032B9BDE8F08306B14042002AF9D03E
:1024400007B1691E1160F5E73024002BB5D10823D0
:10245000B3E7302CA9D00A23AFE700BF782C0008DF
:10246000FFF78CBF2DE9F0410C46496B04F14403A2
:1024700099421DD14FF48061FFF75CFA18B94FF013
:10248000FF30BDE8F0814FF48063A36394F84630D9
:10249000606380F8FF3394F8453080F8FE3394F899
:1024A000443080F8FD3300F2FD3020600020E8E782
:1024B000A66B77003A4600F02FFB05460028DED0D9
:1024C00000EB060801463246404600F00BFBC4E92B
:1024D0000D57C4F80080E9E770B514464A1C06465B
:1024E0000D4603D14FF0FF35284670BD18B1836902
:1024F0000BB900F0D3F9414B9C421DD17468636E57
:10250000DB0705D4A389980502D4A06DFFF748F92D
:10251000B4F90C3023F020035907A3819AB22DD4CB
:10252000D30613D4636EDD07DCD412F4007FD9D157
:10253000A06DFFF736F9D5E7314B9C4201D1B46865
:10254000DDE7304B9C4208BFF468D8E7100711D58F
:102550002146304600F0FCF830B1636ED907C1D493
:10256000A38913F4007FE2E7A389A06023F00803A6
:10257000A381A061A38943F00403A381636B626814
:10258000EDB2D3B1A36B934205DC21463046FFF791
:1025900069FF0028E1D123685A1E226003F8015C1C
:1025A000636801336360636EDA079DD4A3899B057A
:1025B0009AD4A06DFFF7F5F896E7616E206923685D
:1025C00001F0010160B198420AD213F8010CA8424F
:1025D00006D1013B013223606260002984D1E5E726
:1025E000C4E90F3204F1440363630323A363234666
:1025F00003F8465F236001236360EEE7982D00082F
:10260000B82D0008782D000838B5074D0446084657
:10261000114600222A601A4600F0EEFA431C02D14D
:102620002B6803B1236038BD0C02002038B5064D7D
:102630000023044608462B6000F0AEFA431C02D18A
:102640002B6803B1236038BD0C0200208A89F8B5DD
:10265000054610070C4657D44B68002B04DC0B6C66
:10266000002B01DC0020F8BDE66A002EFAD0002322
:1026700012F480522F682B6032D0606DA3895A0704
:1026800005D56368C01A636B0BB1236CC01A0023B5
:102690000246E66A216A2846B047431CA38906D150
:1026A00029681D292CD8294ACA40D60728D50022D6
:1026B0006260D9042269226004D5421C01D12B68D2
:1026C00003B96065616B2F600029CBD004F144032E
:1026D000994202D02846FFF7E3F800206063C2E782
:1026E000216A01232846B047411CC7D12B68002B23
:1026F000C4D01D2B01D0162B01D12F60B2E7A389C6
:1027000043F04003A381AEE70F69002FAAD09307DF
:102710000E6808BF4B690F6018BF0023F61B8B6063
:10272000002E9FDD216AD4F828C033463A46284659
:10273000E047002806DCA38943F04003A3814FF063
:10274000FF3090E70744361AEAE700BF0100402057
:1027500038B50B6905460C4613B90025284638BD27
:1027600018B183690BB900F099F8144B9C421BD146
:102770006C68B4F90C30002BEFD0626ED00704D433
:10278000990502D4A06DFFF70BF828462146FFF704
:102790005DFF636EDA070546E0D4A3899B05DDD4AF
:1027A000A06DFEF7FEFFD9E7054B9C4201D1AC6856
:1027B000DFE7044B9C4208BFEC68DAE7982D00087D
:1027C000B82D0008782D0008014620B9044B0549B2
:1027D000186800F046B9044B1868FFF7B9BF00BF8E
:1027E000542C00085127000800000020002310B5D9
:1027F0000446C0E90033C0E9043383608181436645
:10280000C2818361194608225C30FFF741F8054B0D
:102810006362054BA362054BE362054B24622363AD
:1028200010BD00BFF92100081B2200085322000838
:1028300077220008014900F014B900BF51270008B1
:1028400070B568224D1E55430E4605F17401FFF721
:1028500071F8044640B10021C0E900160C30A060B8
:1028600005F16802FFF714F8204670BD0148FEF735
:1028700097BF00BF010200200148FEF792BF00BFD2
:10288000010200200148FEF78BBF00BF02020020BA
:102890000148FEF786BF00BF0202002010B50446C3
:1028A000FFF7F0FFA3691BB1BDE81040FFF7F0BFD1
:1028B000C4E912332365134B134A1B68A262A34277
:1028C00004BF0123A361204600F020F86060204689
:1028D00000F01CF8A060204600F018F80022E0602C
:1028E00004216068FFF782FFA06801220921FFF739
:1028F0007DFFE06802221221FFF778FF0123A36128
:10290000D2E700BF542C000835280008F8B5074668
:10291000FFF7ACFF1E4B1E68B36913B93046FFF7D3
:10292000BDFF4836D6E90134013B03D533680BB30C
:102930003668F7E7B4F90C50D5B9164BE36004F1EB
:1029400058006566FEF72AFFFFF796FFC4E90155B8
:10295000C4E904552560A5610822294604F15C00FC
:10296000FEF796FFC4E90D55C4E912552046F8BD9F
:102970006834D9E704213846FFF762FF0446306027
:102980000028D5D1FFF778FF0C233B60EEE700BFAE
:10299000542C00080100FFFF0B78722B30B522D0B9
:1029A000772B24D0612B27D016230360002030BD65
:1029B000622D12D0782D13D02B2D07D120F01C00C2
:1029C00023F0030340F0100043F0020311F8015F0D
:1029D000002DEDD123431360E9E743F48033F5E79D
:1029E00043F40063F2E7002423460420EEE74FF4AB
:1029F000C06401230820E9E74FF4027401234FF477
:102A00008470E3E738B5074D0023044608461146B5
:102A10002B6000F0C9F8431C02D12B6803B123607E
:102A200038BD00BF0C0200202DE9F0410F4600F137
:102A300048040026D4E90185B8F1010805D52468C9
:102A4000002CF7D13046BDE8F081AB89012B06D9C7
:102A5000B5F90E30013302D02846B8470643683531
:102A6000EAE72DE9F8430646884600F148040027C6
:102A7000D4E90195B9F1010905D52468002CF7D1F5
:102A80003846BDE8F883AB89012B07D9B5F90E307C
:102A9000013303D029463046C04707436835E9E78C
:102AA00038B5064D0023044608462B6000F084F834
:102AB000431C02D12B6803B1236038BD0C020020F7
:102AC00038B5074D04460846114600222A601A46CA
:102AD00000F07AF8431C02D12B6803B1236038BDA3
:102AE0000C0200200A44914200F1FF3300D17047EC
:102AF00010B511F8014B03F8014F9142F9D110BD07
:102B00000148FEF74DBE00BF000200200148FEF75D
:102B100048BE00BF00020020F8B5074614460E4626
:102B200021B9BDE8F8401146FEF704BF22B9FEF70F
:102B3000B7FE25462846F8BD00F026F8A0420FD281
:102B400021463846FEF7F6FE05460028F2D031460B
:102B50002246FFF7C7FF31463846FEF7A1FEE9E7F8
:102B60003546E7E738B5074D0446084611460022CA
:102B70002A601A4600F038F8431C02D12B6803B1D2
:102B8000236038BD0C02002051F8043C181F002BB4
:102B9000BCBF0B58C0187047024B58221A604FF048
:102BA000FF3070470C020020024B58221A604FF091
:102BB000FF3070470C020020024B58221A600020A0
:102BC000704700BF0C020020024B58221A604FF0E1
:102BD000FF3070470C020020024B58221A604FF061
:102BE000FF3070470C020020024B58221A604FF051
:102BF000FF3070470C020020024B58221A604FF041
:102C0000FF3070470C020020F8B500BFF8BC08BCCC
:102C10009E467047F8B500BFF8BC08BC9E4670479A
:102C20003031323334353637383941424344454602
:102C3000040802005C2C00085F2C0008622C0008CD
:102C400072004C696E446174612E7478740025665C
:102C50000000000004000020686C4C002B2D0030A8
:102C60003000785800412D46612D663839303132B8
:102C700033343536375D00002020202020202020EE
:102C8000202828282828202020202020202020201C
:102C9000202020202020202088101010101010103C
:102CA0001010101010101010040404040404040484
:102CB0000404101010101010104141414141410115
:102CC00001010101010101010101010101010101F4
:102CD0000101011010101010104242424242420203
:102CE00002020202020202020202020202020202C4
:102CF000020202101010102000000000000000006E
:102D000000000000000000000000000000000000C3
:102D100000000000000000000000000000000000B3
:102D200000000000000000000000000000000000A3
:102D30000000000000000000000000000000000093
:102D40000000000000000000000000000000000083
:102D50000000000000000000000000000000000073
:102D60000000000000000000000000000000000063
:102D70000000000000000000000000000000000053
:102D80000000000000000000000000000000000043
:102D90000000000000000000000000000000000033
:102DA0000000000000000000000000000000000023
:102DB0000000000000000000000000000000000013
:102DC0000000000000000000000000000000000003
:082DD0000000000000000000FB
:042DD800B501000839
:042DDC009101000859
:102DE0000400002000000000982D0008B82D000805
:102DF000782D000800000000000000000000000026
:102E000000000000000000000000000000000000C2
:102E100000000000000000000000000000000000B2
:102E200000000000000000000000000000000000A2
:102E30000000000000000000000000000000000092
:042E4000000000008E
:04000005080013EDEF
:00000001FF
